:100000000C9451000C9479000C9479000C947900B4
:100010000C9479000C9479000C9479000C9479007C
:100020000C9479000C9479000C9479000C9479006C
:100030000C9479000C9479000C9479000C9479005C
:100040000C9479000C9479000C9479000C9479004C
:100050000C9479000C9479000C9479000C9479003C
:100060000C9479000C9479000C9479000C9479002C
:100070000C9479000C9479000C9479000C9479001C
:100080000C9479000C9479000C9479000C9479000C
:100090000C9434030C94BE030C9498030C947900D4
:1000A000170711241FBECFEFCDBFDFE3DEBF18E27D
:1000B000A0E0B8E2ECEFFFE002C005900D92A430A2
:1000C000B107D9F729E2A4E0B8E201C01D92A73137
:1000D000B207E1F710E0C1E5D0E004C02197FE01CE
:1000E0000E94A607C035D107C9F70E9407040C94E7
:1000F000BB070C940000FC0154894589252F30E092
:10010000842F90E0821B930B541710F0CF96089524
:1001100001970895FC0192898389981761F0A3895A
:10012000AE0FBF2FB11D59968C9193899F5F9F731E
:10013000938B90E008958FEF9FEF0895FC019289D3
:100140008389981731F08389E80FF11D818D90E044
:1001500008958FEF9FEF0895FC0192892389892FDD
:1001600090E0805C9F4F821B91098F7399270895BF
:10017000CF93DF93EC01E881F9810680F781E02DD0
:100180000995EC85FD8586818F738683EC85FD85D9
:1001900085818F7585838B898A8B198ADF91CF91B1
:1001A0000895CF93DF93FC0194898589C485D58513
:1001B000981306C08D818F7D8D83DF91CF91089537
:1001C000A589AE0FBF2FB11DA75ABF4F2C918589AE
:1001D00090E001968F739927858B80E48C83A485AA
:1001E000B58512962C93948985899813E6CFA485BA
:1001F000B58515968C9115978F7D15968C9387896B
:100200008823D9F2808D80931301178AD6CFDC0121
:100210001C96ED91FC910FB607FE03C0258125FDCC
:1002200004C0248125FD0C94D1000895EF92FF9223
:100230000F931F93CF93DF93EC0181E0898B9C890F
:100240008D8998131CC0AC85BD8514968C9114972C
:1002500085FF15C012966C93AC85BD8580E414961D
:100260008C93EC85FD8585818F7D858381E090E091
:10027000DF91CF911F910F91FF90EF9008958091A2
:10028000110180FF08C080911301888F8E898093AF
:10029000130181E08F8BF62E0C8910E00F5F1F4F4A
:1002A0000F731127E02E8D898E1104C0CE010E949C
:1002B0000701F9CFEC89EC0FFD2FF11DE75AFF4F35
:1002C000F0820C8BEC85FD8585818062CECFCF934B
:1002D000DF93FC0121892223C9F0EC0180911101F7
:1002E00080FF08C080911301808F8689809313015D
:1002F00081E0878BEC85FD85858185FD03C0848148
:1003000086FD04C0CE010E940701F4CFDF91CF919A
:100310000895CF93DF9390E0FC01EE51F04B2081E4
:100320002F3F71F0FC01E853F04BA08130E2A39F16
:10033000D0011124BC5F6130710529F411962C9312
:10034000DF91CF9108958255904BEC01E881EF3F0A
:1003500089F0CD014096E80FF92FF11D9FB7F89471
:1003600012962C9380816230710539F48860808305
:100370009FBFE6CFF0E0E0E0F1CF877FF8CF282FF6
:1003800030E0F901EC56F04BE081EE2309F1E13069
:1003900021F0F0F0E63098F008954091010A2255DE
:1003A000304BF90120812C5F81E090E001C0880F83
:1003B0002A95EAF7809584238093010A089580E1C5
:1003C000E89FF0011124E05AF54F81818F7E8183EF
:1003D0000895FF920F931F93CF93DF93082F10E0A0
:1003E000F801EE51F04BF0809FEFF916A1F0EB0110
:1003F0008B3210F40E94BF01F801E853F04BE0810A
:1004000080E2E89FF0011124FC5F80818F2159F088
:10041000CD2B39F4F682DF91CF911F910F91FF9090
:100420000895F582F8CFD801A255B04B8C91309742
:1004300071F08F3F61F07096E80FF11D9FB7F8944F
:100440008081CD2B39F4877F80839FBFE4CFF0E09C
:10045000E0E0F4CF8860F8CFCF92DF92EF92FF9286
:100460000F931F93CF93DF93EC016A017B01022F5F
:100470008989882339F0E881F9810288F389E02DA0
:10048000CE01099598898091E205892B8093E20538
:100490001FB7F89460E070E281EA97E0A701960147
:1004A0000E94520769017A018FEFC81AD80AE80A38
:1004B000F80AF694E794D794C794EC85FD85868175
:1004C0008D7F8683EC85FD8586818683198AA09140
:1004D00023110A2E000CBB0BA70196010E949E0758
:1004E00020E034E040E050E00E947407EC85FD8598
:1004F000C20ED31EE41EF51EC086D186EC85FD8596
:100500000783EC85FD858681806C8683EC85FD857F
:100510008581806885838E858B3220F462E070E06F
:100520000E9489018F858B3220F461E070E00E9487
:10053000E9018F858B3220F461E070E00E9489012F
:100540001FBFDF91CF911F910F91FF90EF90DF9030
:10055000CF9008950F931F93CF93082F10E0F801C9
:10056000EE51F04BC081CF3FA9F00E94BF01F801CE
:10057000E853F04BE08180E2E89FF0011124FC5F3A
:100580008085C82381E090E009F480E0CF911F913D
:100590000F91089580E090E0F9CFCF93DF938FB76C
:1005A000F8942091132930911429409115295091E4
:1005B0001629E091BA0A9091B60A90FF06C02F5F03
:1005C0003F4F4F4F5F4FE091BA0A8FBFA091112963
:1005D000B0911229C0910F29D09110290E94930740
:1005E000EC9F9001ED9F300D1124620F731F811D50
:1005F000911DDF91CF910895AF92BF92CF92DF927C
:10060000EF92FF920F931F93CF93DF936C017B01C7
:100610008B01040F151FEB015E01AE18BF08C01758
:10062000D10759F06991D601ED91FC910190F081CB
:10063000E02DC6010995892B79F7C501DF91CF918E
:100640001F910F91FF90EF90DF90CF90BF90AF90F0
:10065000089581E00895DC01ED91FC910088F18915
:10066000E02D23E030E009941F920F920FB60F9215
:1006700011242F933F934F935F936F937F938F93A7
:100680009F93AF93BF9340910B2950910C29609198
:100690000D2970910E298091092990910A292091A4
:1006A000072930910829420F531F611D711D2091A8
:1006B000052930910629820F931F883E23E0920777
:1006C00030F0885E93404F5F5F4F6F4F7F4F809356
:1006D000092990930A2940930B2950930C29609380
:1006E0000D2970930E298091132990911429A091BE
:1006F0001529B09116290196A11DB11D80931329CA
:1007000090931429A0931529B093162981E0809322
:10071000B60ABF91AF919F918F917F916F915F9139
:100720004F913F912F910F900FBE0F901F901895F2
:100730001F920F920FB60F9211242F933F934F9356
:100740005F936F937F938F939F93AF93BF93EF9339
:10075000FF9384E098E20E94D100FF91EF91BF9156
:10076000AF919F918F917F916F915F914F913F9149
:100770002F910F900FBE0F901F9018951F920F9200
:100780000FB60F9211242F933F934F935F936F9364
:100790007F938F939F93AF93BF93EF93FF93E091DA
:1007A0001028F0911128818181FD2FC060818091F6
:1007B00016288F5F8F7390911728891741F0E09169
:1007C0001628F0E0EC5FF74D618F8093162880913A
:1007D0009D2890919E28009739F0DC01ED91FC91C5
:1007E0000190F081E02D0995FF91EF91BF91AF91BC
:1007F0009F918F917F916F915F914F913F912F9139
:100800000F900FBE0F901F9018958081EDCFCF9362
:10081000DF93CDB7DEB72797CDBFDEBF88ED90E081
:1008200084BF9093610080E094E2A4EFB0E08093F5
:10083000002890930128A0930228B0930328809168
:100840000206866080930206809100068160809394
:100850000006809102068F7C809302068091A000A2
:100860008F788093A00080910206806180930206B9
:100870001092E20581E08093E40583E08093010A11
:100880008FEF90E08093260A9093270A80E890E00B
:100890008093380A9093390A80933A0A90933B0ADE
:1008A00080933C0A90933D0A8BE08093000A8091EC
:1008B000E50581608093E5058091E5058260809380
:1008C000E505E0E8FAE037E02FEF90E885E03183D6
:1008D0002487958780837096E03C4AE0F407B9F757
:1008E00080E094E08093112990931229809111293E
:1008F000909112292FEF30E0B9010E943E076093DA
:100900000F29709310298091112990911229E8EEF6
:10091000F3E0BF010E943E07609307297093082906
:100920008091112990911229BF010E943E07809366
:100930000529909306292093BC0A3093BD0A809123
:10094000B50A81608093B50A84E08093B00A8091F3
:10095000B00A81608093B00A789461E070E08EE024
:100960000E94890161E070E08FE00E94890161E0EE
:1009700070E080E10E94890161E070E081E10E9405
:10098000890161E070E082E10E94890161E070E02C
:1009900083E10E94890161E070E084E10E948901A5
:1009A00061E070E085E10E94890170E060E08EE026
:1009B0000E94E90170E060E08FE00E94E90170E0D0
:1009C00060E080E10E94E90170E060E081E10E9466
:1009D000E90170E060E082E10E94E90170E060E01E
:1009E00083E10E94E90170E060E084E10E94E90196
:1009F00070E060E085E10E94E90170E060E081E084
:100A00000E94890170E060E083E00E94890170E04B
:100A100060E082E00E94890170E060E084E00E9472
:100A2000890161E070E085E00E94890161E070E089
:100A300086E00E94890161E070E087E00E94890100
:100A400070E060E085E00E94E90170E060E086E02F
:100A50000E94E90170E060E087E00E94E901EFEDAB
:100A6000F8E28FEF98E211921192119211928E1783
:100A70009F07C9F7EFEBF8E2AFE9B8E211921D92D8
:100A800058E2EF3DF507D1F740E052EC61E070E04D
:100A900084E098E20E942B03809101299091022921
:100AA000A0910329B0910429892B8A2B8B2B51F417
:100AB0000E94CD026093012970930229809303293B
:100AC000909304290E94CD026C837D838E839F8343
:100AD0008091012990910229A0910329B0910429C4
:100AE0008C599F4FAF4FBF4F2C813D814E815F810D
:100AF00082179307A407B50708F031C1C090FF28FB
:100B0000D090002961E070E0C114D10411F070E0D0
:100B100060E08EE00E94E90161E070E031E0C31620
:100B2000D10411F070E060E08FE00E94E90161E023
:100B300070E042E0C416D10411F070E060E080E1A2
:100B40000E94E90161E070E053E0C516D10411F0A4
:100B500070E060E081E10E94E90161E070E084E022
:100B6000C816D10411F070E060E082E10E94E90152
:100B700061E070E095E0C916D10411F070E060E02A
:100B800083E10E94E90161E070E0A6E0CA16D104A9
:100B900011F070E060E084E10E94E90161E070E042
:100BA000B7E0CB16D10411F070E060E085E10E945F
:100BB000E901B12CA12C412C10E0312C512C00E08A
:100BC000602F617070E085E00E94E90101FB6627FB
:100BD00060F970E086E00E94E90102FB662760F997
:100BE00070E087E00E94E90181E00E94AA024C01C6
:100BF00083E00E94AA027C0182E00E94AA023C01DA
:100C000084E00E94AA02043008F0B1C00A2C01C09E
:100C1000880F0A94EAF7852995012F5F3F4F022E2E
:100C200001C0660C0A94EAF7582E56280A2C01C017
:100C3000EE0C0A94EAF7E12A01C0880C2A95EAF73B
:100C40001E2D18290F5FE2E0AE0EB11C083009F02E
:100C5000B7CF812E912CB12CA12C5401992488243A
:100C600093288528B42816013324F101EE0FFF1FC5
:100C7000EE0FFF1FE152F74D40805180628073807C
:100C800084149504A604B70409F450C080829182AC
:100C9000A282B382C12CD12C7601C39410E04824E7
:100CA00059246A247B24D301C2018C219D21AE21C9
:100CB000BF21892B8A2B8B2B89F1B501A4014C21F3
:100CC0005D216E217F21212F2695F8E02F9F900135
:100CD0001124220D331DC90187709927A1E0B0E0CE
:100CE00001C0AA0F8A95EAF7C901E3E095958795B7
:100CF000EA95E1F710FF58C0452B462B472B71F0C2
:100D00003A2F3095FC01E154F74D208123232083B5
:100D1000FC01E156F74DA081A323A0831F5FCC0CFB
:100D2000DD1CEE1CFF1C103209F0BDCF2C813D8173
:100D30004E815F812093012930930229409303293A
:100D4000509304298091FF289091002901968830C2
:100D5000910508F067C08093FF289093002940E038
:100D600050E0452B09F498CE0E94000095CEA501D5
:100D700048505109042E01C0880F0A94EAF79501E2
:100D800027503109022E01C0660C0A94EAF7862921
:100D9000382A01C0EE0C4A95EAF701C0880C2A9562
:100DA000EAF7E8284E284ECF01E0203431050CF058
:100DB00000E02F7333272C5D3F4F2136310514F0AF
:100DC00020E630E0452B462B472BD9F0AC014154AF
:100DD000574DFA019081892F8A2309F09FCFA92BC3
:100DE000A083E02FE069E9832A83FFE7FB8343E0E8
:100DF00050E0BE016F5F7F4F84E098E20E94FC02EA
:100E00008DCFAC014156574DFA019081892F8A232D
:100E100009F084CFA92BA083E02FE068E9832A831F
:100E20001B82E5CF1092FF281092002998CFE4E0B2
:100E3000F8E21282138288EE93E0A0E0B0E08483AF
:100E40009583A683B7838EE79FE48083918380E6B2
:100E500098E08487958788E1868789E1878780E4A1
:100E6000808B128A138A148A158A86E2868B178AE7
:100E7000108E10929D2810929E280895AA1BBB1BCD
:100E800051E107C0AA1FBB1FA617B70710F0A61B8A
:100E9000B70B881F991F5A95A9F780959095BC01AB
:100EA000CD010895A1E21A2EAA1BBB1BFD010DC0A6
:100EB000AA1FBB1FEE1FFF1FA217B307E407F5070A
:100EC00020F0A21BB30BE40BF50B661F771F881FE6
:100ED000991F1A9469F760957095809590959B017C
:100EE000AC01BD01CF010895052E97FB1EF40094BF
:100EF0000E948B0757FD07D00E94520707FC03D0C2
:100F00004EF40C948B0750954095309521953F4FAA
:100F10004F4F5F4F089590958095709561957F4FE5
:100F20008F4F9F4F08950E94AC07A59F900DB49FCF
:100F3000900DA49F800D911D11240895B7FF0C946E
:100F400093070E949307821B930B0895EE0FFF1FD8
:100F50000590F491E02D0994A29FB001B39FC001C8
:100F6000A39F700D811D1124911DB29F700D811DD5
:0A0F70001124911D0895F894FFCF9D
:100F7A00000000001601FC027B006701AC008A0039
:100F8A009E002B032C02B800290300000003000175
:100F9A000200000101000000000000000000000043
:100FAA000000000005040005060204010300010018
:100FBA0001020302010002030405020305040202FE
:100FCA0000050201050004010104040403030303EC
:100FDA00050503030000010120100120400410024E
:100FEA00080102010204080402010408102004088E
:020FFA002010C5
:040FFC000024F400D9
:00000001FF
