:100000000C9451000C9479000C9479000C947900B4
:100010000C9479000C9479000C9479000C9479007C
:100020000C9479000C9479000C9479000C9479006C
:100030000C9479000C9479000C9479000C9479005C
:100040000C9479000C9479000C9479000C9479004C
:100050000C9479000C9479000C9479000C9479003C
:100060000C9479000C9479000C9479000C9479002C
:100070000C9479000C9479000C9479000C9479001C
:100080000C9479000C9479000C9479000C9479000C
:100090000C9429100C94B3100C948D100C947900CE
:1000A000FC1011241FBECFEFCDBFDFE3DEBF29E27E
:1000B000AEE1B8E201C01D92A438B207E1F718E240
:1000C000A0E0B8E2EFE9FCE202C005900D92AE318B
:1000D000B107D9F710E0C1E5D0E004C02197FE01D7
:1000E0000E942314C035D107C9F70E943C110C941B
:1000F00029140C940000E4E4F9E2806B808387E02B
:10010000818362830895CF93DF9390E0FC01E251F5
:10011000F74920812F3F71F0FC01EC52F749A08193
:1001200030E2A39FD0011124BC5F6130710529F436
:1001300011962C93DF91CF91089586549749EC0145
:10014000E881EF3F89F0CD014096E80FF92FF11DCE
:100150009FB7F89412962C9380816230710539F420
:10016000886080839FBFE6CFF0E0E0E0F1CF877F3B
:10017000F8CF282F30E0F901E056F749E081EE236F
:1001800009F1E13021F0F0F0E63098F00895409167
:10019000010A26543749F90120812C5F81E090E063
:1001A00001C0880F2A95EAF7809584238093010A7D
:1001B000089580E1E89FF0011124E05AF54F818114
:1001C0008F7E81830895FF920F931F93CF93DF93C8
:1001D000082F10E0F801E251F749F0809FEFF9167F
:1001E000A1F0EB018B3210F40E94B900F801EC523F
:1001F000F749E08180E2E89FF0011124FC5F8081F3
:100200008F2159F0CD2B39F4F682DF91CF911F91D8
:100210000F91FF900895F582F8CFD801A654B74901
:100220008C91309771F08F3F61F07096E80FF11D5F
:100230009FB7F8948081CD2B39F4877F80839FBF4F
:10024000E4CFF0E0E0E0F4CF8860F8CF0F931F93A5
:10025000CF938B32E8F4082F10E0F801E251F74910
:10026000C081CF3FA9F00E94B900F801EC52F749D4
:10027000E08180E2E89FF0011124FC5F8085C823C3
:1002800081E090E009F480E0CF911F910F910895F3
:1002900080E090E0F9CFE82FF0E0E856F7498E30A3
:1002A000B8F480818F30B0F48093060681E08093AB
:1002B000080680910B0680FFFCCF2FB7F894909131
:1002C0001006809111062FBF892798278927089546
:1002D0003E97E7CF8FEF90E00895CF93DF938FB7EE
:1002E000F89420916E2830916F2840917028509199
:1002F0007128E091BA0A9091B60A90FF06C02F5F6C
:100300003F4F4F4F5F4FE091BA0A8FBFA0916C28CB
:10031000B0916D28C0916A28D0916B280E94AC13CF
:10032000EC9F9001ED9F300D1124620F731F811D12
:10033000911DDF91CF910895AF92BF92CF92DF923E
:10034000EF92FF920F931F93CF93DF936C017B018A
:100350008B01040F151FEB015E01AE18BF08C0171B
:10036000D10759F06991D601ED91FC910190F0818E
:10037000E02DC6010995892B79F7C501DF91CF9151
:100380001F910F91FF90EF90DF90CF90BF90AF90B3
:100390000895FC0154894589252F30E0842F90E091
:1003A000821B930B541710F0CF9608950197089570
:1003B000FC0192898389981761F0A389AE0FBF2F42
:1003C000B11D59968C9193899F5F9F73938B90E099
:1003D00008958FEF9FEF0895FC0192898389981704
:1003E00031F08389E80FF11D818D90E008958FEF42
:1003F0009FEF0895FC0192892389892F90E0805C0A
:100400009F4F821B91098F7399270895CF93DF9394
:10041000EC01E881F9810680F781E02D0995EC85F2
:10042000FD8586818F738683EC85FD8585818F753B
:1004300085838B898A8B198ADF91CF910895CF921A
:10044000DF92EF92FF920F931F93CF93DF93EC0114
:100450006A017B01022F8989882339F0E881F981BB
:100460000288F389E02DCE01099598898091E205F3
:10047000892B8093E2051FB7F89460E070E281EA6F
:1004800097E0A70196010E94DA1369017A018FEFC4
:10049000C81AD80AE80AF80AF694E794D794C794D9
:1004A000EC85FD8586818D7F8683EC85FD85868143
:1004B0008683198AA09123110A2E000CBB0BA70179
:1004C00096010E941B1420E034E040E050E00E94BE
:1004D000FC13EC85FD85C20ED31EE41EF51EC086FE
:1004E000D186EC85FD850783EC85FD858681806C52
:1004F0008683EC85FD858581806885838E858B323A
:1005000020F462E070E00E9483008F858B3220F43B
:1005100061E070E00E94E3008F858B3220F461E09F
:1005200070E00E9483001FBFDF91CF911F910F9158
:10053000FF90EF90DF90CF900895CF93DF93FC0171
:1005400094898589C485D585981306C08D818F7D52
:100550008D83DF91CF910895A589AE0FBF2FB11D77
:10056000A75ABF4F2C91858990E001968F739927E8
:10057000858B80E48C83A485B58512962C93948911
:1005800085899813E6CFA485B58515968C91159726
:100590008F7D15968C9387898823D9F2808D8093DF
:1005A0001301178AD6CFDC011C96ED91FC910FB692
:1005B00007FE03C0258125FD04C0248125FD0C9480
:1005C0009D020895EF92FF920F931F93CF93DF93B5
:1005D000EC0181E0898B9C898D8998131CC0AC85C6
:1005E000BD8514968C91149785FF15C012966C9357
:1005F000AC85BD8580E414968C93EC85FD85858162
:100600008F7D858381E090E0DF91CF911F910F91E5
:10061000FF90EF9008958091110180FF08C08091B4
:100620001301888F8E898093130181E08F8BF62EC2
:100630000C8910E00F5F1F4F0F731127E02E8D897B
:100640008E1104C0CE010E94D302F9CFEC89EC0FC9
:10065000FD2FF11DE75AFF4FF0820C8BEC85FD85D5
:1006600085818062CECFCF93DF93FC012189222345
:10067000C9F0EC018091110180FF08C08091130145
:10068000808F86898093130181E0878BEC85FD85BF
:10069000858185FD03C0848186FD04C0CE010E9452
:1006A000D302F4CFDF91CF91089581E00895E4E47F
:1006B000F9E290EC908381830895CF93C82F682F3F
:1006C00070E080E10E94E30087E2C11101C086E290
:1006D000CF910C945703CF93C82F682F70E083E11C
:1006E0000E94E30084E2C11101C085E2CF910C9425
:1006F0005703CF93C82F682F70E085E10E94E30075
:1007000082E2C11101C083E2CF910C945703CF93D1
:10071000C82F682F70E08CE00E94E30081E2C111D5
:1007200001C080E2CF910C9457030F931F93CF9396
:10073000DF930697EC01CC0FDD1FFE01E45FF74D60
:100740008081918101E010E0009711F010E000E05D
:10075000FE01E45FF74D00831183FE01E050F84D88
:10076000208131810217130749F0892B19F0862F58
:100770000E945703C050D84D08831983DF91CF9151
:100780001F910F9108956AE270E086E090E00E9468
:1007900095036DE270E087E090E00E9495036BE2C4
:1007A00070E088E090E00E9495036EE270E089E0DE
:1007B00090E00E9495036CE270E08AE090E00E9475
:1007C00095036FE270E08BE090E00C949503CF937B
:1007D000C82F682F70E085E00E94E30080E3C1111C
:1007E00001C081E3CF910C945703CF93C82F682F9A
:1007F00070E083E00E94E30082E3C11101C083E363
:10080000CF910C945703CF93C82F682F70E081E0ED
:100810000E94E30089E2C11101C088E2CF910C94EB
:1008200057030F931F93CF93DF9320915D282111DE
:1008300010C0E8E4F8E2C3E3D8E2AEE1B8E2119216
:1008400019921D9228E2ED35F207C9F721E02093B5
:100850005D28EC01CD5CD74D288131E0232728832A
:100860008C01085B174DF8014081241769F02111B4
:1008700008C0FB01DC01A25EB74D8C9183278C93ED
:1008800009958881F8018083DF91CF911F910F91A5
:10089000089589EA98E20C943303682F89EA98E274
:1008A0000C94E202CF92DF92EF92FF92CF936B0112
:1008B0007C0149300CF048E0CFEFC40FCF3F31F45A
:1008C000CF91FF90EF90DF90CF90089524E0C29FEA
:1008D000C0011124A701960104C05695479537958C
:1008E00027958A95D2F7C9018F7099278A3091058B
:1008F00034F4805D90E00E944D04C150DFCF895CEC
:10090000F9CFCF93DF93EC018991811103C0DF917F
:10091000CF91089590EE980F9F3530F4082E000C7B
:10092000990B0E944D04F0CF8D3039F48CE590E0A6
:100930000E944D0482E790E0F4CF8A3039F48CE5D0
:1009400090E00E944D048EE690E0EBCF8CE590E0C5
:100950000E944D0488E790E00E944D04FE0131970B
:100960006081062E000C770B880B990B42E00E94E9
:100970005204CACF4F925F926F927F928F929F9252
:10098000AF92BF92CF92DF92EF92FF922B013C0188
:10099000C12CD12C7601C394C301B201A7019601E9
:1009A0000E94DA132A3031054105510580F58AE0AD
:1009B000882E912CA12CB12CC301B201A701960164
:1009C0000E94DA13CA01B901A50194010E94DA1349
:1009D000605D862F90E00E944D04C701B601A5011D
:1009E00094010E94DA1369017A01C114D104E1046F
:1009F000F10411F7FF90EF90DF90CF90BF90AF9090
:100A00009F908F907F906F905F904F900895AAE095
:100A1000B0E0A70196010E94AC136B017C01BCCF32
:100A2000CF92DF92EF92FF926B017C01F7FE0CC038
:100A30008DE290E00E944D04F094E094D094C09434
:100A4000C11CD11CE11CF11CC701B601FF90EF9045
:100A5000DF90CF900C94BA04CF92DF92EF92FF9286
:100A60006A017B01009711F00E9481048AE390E003
:100A70000E944D04C701B6010E9410058AE390E070
:100A80000E944D048091742890917528009711F070
:100A90000E9481048AE390E0FF90EF90DF90CF9076
:100AA0000C944D04AB01BC01809172289091732885
:100AB0000E942C058BE598E60E9481048AE390E071
:100AC0000C944D04CF92DF92EF92FF92CF9344FFAC
:100AD00007C0CF91FF90EF90DF90CF900C9410055E
:100AE00045FF07C0CF91FF90EF90DF90CF900C941F
:100AF000BA04C42F6B017C0180E390E00E944D0496
:100B000088E790E00E944D044C2F4F70440FC701BE
:100B1000B601CF91FF90EF90DF90CF900C945204EC
:100B2000DC01ED91FC910088F189E02D23E030E0BB
:100B300009944F925F926F927F928F929F92AF92A1
:100B4000BF92EF92FF920F931F932B013C0149013B
:100B50005A01C801B70100918A2810918B28209171
:100B60008C2830918D28012B022B032B61F40091EE
:100B70008E2810918F282091902830919128012B58
:100B8000022B032B31F061E070E082E998E20E94D1
:100B90008C13481459046A047B0429F10E945205FD
:100BA00082E399E60E94810442E150E0C301B20170
:100BB0000E9462058CE299E60E94810442E150E0C5
:100BC000C501B4010E94620581E090E0A0E0B0E0C0
:100BD00080938A2890938B28A0938C28B0938D289B
:100BE0000E944904D0CF1F910F91FF90EF90BF90CA
:100BF000AF909F908F907F906F905F904F900895EF
:100C0000EF92FF920F931F9380E00E9426019C01B8
:100C100050E040E01AE1E12EF12C00E010E060E04D
:100C200070E0CB010E94990581E00E9426019C01A1
:100C300050E040E01BE1E12EF12C00E010E060E02C
:100C400070E0CB010E9499051F910F91FF90EF90EA
:100C50000895EF92FF920F931F9384E00E94260164
:100C60009C0150E040E01FE1E12EF12C00E010E09B
:100C700060E070E0CB010E94990585E00E942601AA
:100C80009C0150E040E010E2E12EF12C00E010E089
:100C900060E070E0CB010E9499051F910F91FF90D9
:100CA000EF900895EF92FF920F931F9382E00E94BE
:100CB00026019C0150E040E014E2E12EF12C00E01E
:100CC00010E060E070E0CB010E94990583E00E9493
:100CD00026019C0150E040E015E2E12EF12C00E0FD
:100CE00010E060E070E0CB010E9499051F910F9128
:100CF000FF90EF900895EF92FF920F931F9386E07D
:100D00000E942601892B09F05AC087E00E94260123
:100D10009C0150E040E010E3E12EF12C00E010E0F7
:100D200061E070E080E090E00E94990588E00E9418
:100D300026019C0150E040E011E3E12EF12C00E09F
:100D400010E061E070E080E090E00E94990589E0A9
:100D50000E9426019C0150E040E012E3E12EF12CBC
:100D600000E010E061E070E080E090E00E94990512
:100D70008AE00E9426019C0150E040E013E3E12E4E
:100D8000F12C00E010E061E070E080E090E00E9473
:100D900099058BE00E9426019C0150E040E014E39D
:100DA000E12EF12C00E010E061E070E080E090E0E6
:100DB0000E9499051F910F91FF90EF90089587E091
:100DC0000E942601892B09F050C086E00E9426016E
:100DD0009C0150E040E016E3E12EF12C00E010E031
:100DE00061E070E080E090E00E94990588E00E9458
:100DF00026019C0150E040E017E3E12EF12C00E0D9
:100E000010E061E070E080E090E00E94990589E0E8
:100E10000E9426019C0150E040E018E3E12EF12CF5
:100E200000E010E061E070E080E090E00E94990551
:100E30008AE00E9426019C0150E040E019E3E12E87
:100E4000F12C00E010E061E070E080E090E00E94B2
:100E500099058BE00E9426019C0150E040E01AE3D6
:100E6000E12EF12C00E010E09FCF88E00E942601E7
:100E7000892B09F050C086E00E9426019C0150E0B9
:100E800040E01CE3E12EF12C00E010E061E070E0B6
:100E900080E090E00E94990587E00E9426019C0175
:100EA00050E040E01DE3E12EF12C00E010E061E0B5
:100EB00070E080E090E00E94990589E00E942601A0
:100EC0009C0150E040E01EE3E12EF12C00E010E038
:100ED00061E070E080E090E00E9499058AE00E9465
:100EE00026019C0150E040E01FE3E12EF12C00E0E0
:100EF00010E061E070E080E090E00E9499058BE0F6
:100F00000E9426019C0150E040E010E4E12EF12C0B
:100F100000E010E049CF89E00E942601892B09F00A
:100F200050C086E00E9426019C0150E040E012E49F
:100F3000E12EF12C00E010E061E070E080E090E054
:100F40000E94990587E00E9426019C0150E040E044
:100F500013E4E12EF12C00E010E061E070E080E0AD
:100F600090E00E94990588E00E9426019C0150E0D3
:100F700040E014E4E12EF12C00E010E061E070E0CC
:100F800080E090E00E9499058AE00E9426019C0181
:100F900050E040E015E4E12EF12C00E010E061E0CB
:100FA00070E080E090E00E9499058BE00E942601AD
:100FB0009C0150E040E016E4E12EF12C00E010E04E
:100FC000F3CE8AE00E942601892B09F050C086E00A
:100FD0000E9426019C0150E040E018E4E12EF12C33
:100FE00000E010E061E070E080E090E00E94990590
:100FF00087E00E9426019C0150E040E019E4E12EC8
:10100000F12C00E010E061E070E080E090E00E94F0
:10101000990588E00E9426019C0150E040E01AE416
:10102000E12EF12C00E010E061E070E080E090E063
:101030000E94990589E00E9426019C0150E040E051
:101040001BE4E12EF12C00E010E061E070E080E0B4
:1010500090E00E9499058BE00E9426019C0150E0DF
:1010600040E01CE4E12EF12C00E010E09DCE86E093
:101070000E9426019C0150E040E01EE4E12EF12C8C
:1010800000E010E061E070E080E090E00E949905EF
:1010900087E00E9426019C0150E040E01FE4E12E21
:1010A000F12C00E010E061E070E080E090E00E9450
:1010B000990588E00E9426019C0150E040E010E57F
:1010C000E12EF12C00E010E061E070E080E090E0C3
:1010D0000E94990589E00E9426019C0150E040E0B1
:1010E00011E5E12EF12C00E010E061E070E080E01D
:1010F00090E00E9499058AE00E9426019C0150E040
:1011000040E012E5E12EF12C00E010E04DCEEF9230
:10111000FF920F931F938DE00E9426019C0150E0E7
:1011200040E017E5E12EF12C00E010E060E070E017
:10113000CB010E9499058CE00E9426019C0150E0A1
:1011400040E018E5E12EF12C00E010E060E070E0F6
:10115000CB010E9499051F910F91FF90EF90089588
:10116000EF92FF920F931F9384E10E9426019C014E
:1011700050E040E01CE5E12EF12C00E010E060E0E2
:1011800070E0CB010E94990585E10E9426019C0137
:1011900050E040E01DE5E12EF12C00E010E060E0C1
:1011A00070E0CB010E9499051F910F91FF90EF9085
:1011B0000895EF92FF920F931F9382E10E94260100
:1011C0009C0150E040E011E6E12EF12C00E010E03F
:1011D00060E070E0CB010E94990583E10E94260146
:1011E0009C0150E040E012E6E12EF12C00E010E01E
:1011F00060E070E0CB010E9499051F910F91FF9074
:10120000EF900895EF92FF920F931F9381E10E9458
:1012100026019C0150E040E016E6E12EF12C00E0B2
:1012200010E060E070E0CB010E94990580E10E942F
:1012300026019C0150E040E017E6E12EF12C00E091
:1012400010E060E070E0CB010E9499051F910F91C2
:10125000FF90EF900895EF92FF920F931F9381E01C
:101260000E9426019C0150E040E013ECE12EF12C9D
:1012700000E010E060E070E0CB010E94990563E0BF
:1012800074E090E080E00E94110463E074E090E07C
:1012900080E00E94110481E00E9426019C0150E040
:1012A00040E016ECE12EF12C00E010E061E070E08F
:1012B00080E090E00E94990563E074E090E080E0B7
:1012C0000E94110463E074E090E080E00E94110449
:1012D00081E00E9426019C0150E040E019ECE12EE3
:1012E000F12C00E010E060E070E0CB010E94990575
:1012F0001F910F91FF90EF900895EF92FF920F933F
:101300001F9381E00E94F50383E00E9426019C0167
:1013100050E040E014E9E12EF12C00E010E061E043
:1013200070E080E090E00E94990580E00E94F50363
:1013300083E00E9426019C0150E040E017E9E12E85
:10134000F12C00E010E060E070E0CB010E94990514
:101350001F910F91FF90EF900895EF92FF920F93DE
:101360001F9383E00E9426019C0150E040E01DECA9
:10137000E12EF12C00E010E060E070E0CB010E9473
:10138000990565EF73E082E090E00E94110465EF3B
:1013900073E082E090E00E94110483E00E94260145
:1013A0009C0150E040E010EDE12EF12C00E010E057
:1013B00061E070E080E090E00E94990565EF73E0E5
:1013C00082E090E00E94110465EF73E082E090E01B
:1013D0000E94110483E00E9426019C0150E040E03D
:1013E00013EDE12EF12C00E010E060E070E0CB01A5
:1013F0000E9499051F910F91FF90EF900895EF9231
:10140000FF920F931F9381E00E94E70385E00E9403
:1014100026019C0150E040E01CE9E12EF12C00E0A7
:1014200010E061E070E080E090E00E94990580E0CB
:101430000E94E70385E00E9426019C0150E040E005
:101440001FE9E12EF12C00E010E060E070E0CB013C
:101450000E9499051F910F91FF90EF900895EF92D0
:10146000FF920F931F9385E00E9426019C0150E09C
:1014700040E017EDE12EF12C00E010E060E070E0BC
:10148000CB010E94990567EE73E084E090E00E9432
:10149000110467EE73E084E090E00E94110485E09F
:1014A0000E9426019C0150E040E01AEDE12EF12C53
:1014B00000E010E061E070E080E090E00E949905BB
:1014C00067EE73E084E090E00E94110467EE73E041
:1014D00084E090E00E94110485E00E9426019C01B6
:1014E00050E040E01DEDE12EF12C00E010E060E066
:1014F00070E0CB010E9499051F910F91FF90EF9032
:101500000895EF92FF920F931F9381E00E9487034B
:101510008CE00E9426019C0150E040E014EAE12E9C
:10152000F12C00E010E061E070E080E090E00E94CB
:10153000990580E00E9487038CE00E9426019C01AF
:1015400050E040E017EAE12EF12C00E010E060E00E
:1015500070E0CB010E9499051F910F91FF90EF90D1
:101560000895EF92FF920F931F938CE00E94260143
:101570009C0150E040E010EFE12EF12C00E010E083
:1015800060E070E0CB010E94990567E873E08DE0B0
:1015900090E00E94110467E873E08DE090E00E9403
:1015A00011048CE00E9426019C0150E040E013EF02
:1015B000E12EF12C00E010E061E070E080E090E0CE
:1015C0000E94990567E873E08DE090E00E941104A5
:1015D00067E873E08DE090E00E9411048CE00E94C7
:1015E00026019C0150E040E016EFE12EF12C00E0D6
:1015F00010E060E070E0CB010E9499051F910F910F
:10160000FF90EF900895EF92FF920F931F9381E068
:101610000E94790385E10E9426019C0150E040E090
:101620001CEAE12EF12C00E010E061E070E080E0C7
:1016300090E00E94990580E00E94790385E10E9474
:1016400026019C0150E040E01FEAE12EF12C00E071
:1016500010E060E070E0CB010E9499051F910F91AE
:10166000FF90EF900895EF92FF920F931F9385E103
:101670000E9426019C0150E040E01AEFE12EF12C7F
:1016800000E010E060E070E0CB010E94990569E79E
:1016900073E084E190E00E94110469E773E084E163
:1016A00090E00E94110485E10E9426019C0150E017
:1016B00040E01DEFE12EF12C00E010E061E070E071
:1016C00080E090E00E94990569E773E084E190E092
:1016D0000E94110469E773E084E190E00E94110424
:1016E00085E10E9426019C0150E040E0E12CF12CB4
:1016F0008701F39460E070E0CB010E9499051F918F
:101700000F91FF90EF900895EF92FF920F931F9328
:1017100081E00E946B0383E10E9426019C0150E05E
:1017200040E014EBE12EF12C00E010E061E070E00D
:1017300080E090E00E94990580E00E946B0383E1C5
:101740000E9426019C0150E040E017EBE12EF12CB5
:1017500000E010E060E070E0CB010E9499051F916D
:101760000F91FF90EF900895EF92FF920F931F93C8
:1017700083E10E9426019C0150E040E014E0E12E4C
:10178000FF24F39400E010E060E070E0CB010E94E1
:1017900099056BE673E082E190E00E9411046BE62C
:1017A00073E082E190E00E94110483E10E9426012F
:1017B0009C0150E040E017E0E12EFF24F39400E0AC
:1017C00010E061E070E080E090E00E9499056BE637
:1017D00073E082E190E00E9411046BE673E082E125
:1017E00090E00E94110483E10E9426019C0150E0D8
:1017F00040E01AE0E12EFF24F39400E010E060E006
:1018000070E0CB010E9499051F910F91FF90EF901E
:101810000895EF92FF920F931F9381E00E945D0362
:1018200080E10E9426019C0150E040E01CEBE12E8B
:10183000F12C00E010E061E070E080E090E00E94B8
:10184000990580E00E945D0380E10E9426019C01D1
:1018500050E040E01FEBE12EF12C00E010E060E0F2
:1018600070E0CB010E9499051F910F91FF90EF90BE
:101870000895EF92FF920F931F9380E10E9426013B
:101880009C0150E040E01EE0E12EFF24F39400E0D4
:1018900010E060E070E0CB010E9499056DE573E017
:1018A00081E190E00E9411046DE573E081E190E038
:1018B0000E94110480E10E9426019C0150E040E05A
:1018C00011E1E12EFF24F39400E010E061E070E00C
:1018D00080E090E00E9499056DE573E081E190E081
:1018E0000E9411046DE573E081E190E00E94110413
:1018F00080E10E9426019C0150E040E014E1E12ECD
:10190000FF24F39400E010E060E070E0CB010E945F
:1019100099051F910F91FF90EF9008954F925F925C
:101920006F927F92AF92BF92CF92DF92EF92FF922F
:101930000F931F93CF93DF93CDB7DEB72897CDBF1B
:10194000DEBF6D837E838F83988729013A01E98208
:10195000FA820B831C8380918A2890918B28A09116
:101960008C28B0918D28892B8A2B8B2B61F4809148
:101970008E2890918F28A0919028B0919128892B42
:101980008A2B8B2B31F061E070E082E998E20E94B3
:101990008C1309811A812B813C8141E050E060E089
:1019A00070E0401651066206730608F05CC0D9016B
:1019B000C80184199509A609B7090D811E812F81D7
:1019C0003885081719072A073B0718F040E050E050
:1019D000BA0140938A2850938B2860938C28709387
:1019E0008D2880918A2890918B28A0918C28B09185
:1019F0008D28892B8A2B8B2B09F440C0C601B50199
:101A00000E94520582E199E60E94810441E250E081
:101A10006D817E818F8198850E94620582E399E6BF
:101A20000E94810441E250E0C301B2010E946205BC
:101A30008CE299E60E94810441E250E069817A815A
:101A40008B819C810E94620581E090E0A0E0B0E083
:101A500080938A2890938B28A0938C28B0938D280C
:101A60000E94490490CFD301C20109811A812B81C0
:101A70003C81801B910BA20BB30B9FCF2896CDBF4F
:101A8000DEBFDF91CF911F910F91FF90EF90DF901C
:101A9000CF90BF90AF907F906F905F904F900895E0
:101AA000AF92BF92CF92DF92EF92FF920F931F936C
:101AB0008EE00E944B018233910508F18F5D9340C7
:101AC0008797F8F486E3E82EF12C10E000E082E737
:101AD000A82EB12CC12CD12C25E330E040E050E001
:101AE00061E070E080E090E00E948E0C1F910F9109
:101AF000FF90EF90DF90CF90BF90AF90089585E377
:101B0000E2CF84E3E0CFAF92BF92CF92DF92EF9229
:101B1000FF920F931F938FE00E944B0197FD079652
:101B200023E0959587952A95E1F7E82EF12C10E0B2
:101B300000E03EE7A32EB12CC12CD12C20E430E0F4
:101B400040E050E060E470E080E090E00E948E0CA5
:101B50001F910F91FF90EF90DF90CF90BF90AF90CB
:101B600008954F925F926F927F928F929F92AF9261
:101B7000BF92CF92DF92EF92FF92FB01C0908A2832
:101B8000D0908B28E0908C28F0908D28CD28CE28FE
:101B9000CF2861F4C0908E28D0908F28E0909028B4
:101BA000F0909128CD28CE28CF2831F061E070E068
:101BB00082E998E20E948C138617970739F1DC01BD
:101BC0008C90082C000C9908AA08BB08C0800C2C2B
:101BD000000CDD08EE08FF088C149D04AE04BF0461
:101BE00011F511968C90082C000C9908AA08BB08D6
:101BF000C1800C2C000CDD08EE08FF08412C512C94
:101C00003201C814D904EA04FB0489F4FF90EF9070
:101C1000DF90CF90BF90AF909F908F907F906F900C
:101C20005F904F900895412C512C32014394CA018A
:101C3000B9010E94520588E099E60E94810461E0A2
:101C400070E080E090E064197509860997090E94A8
:101C5000BA0482E399E60E948104C501B4017727A2
:101C60008827992741E250E00E9462058CE299E6BC
:101C70000E948104C701B60177278827992741E28E
:101C800050E00E94620581E090E0A0E0B0E0809327
:101C90008A2890938B28A0938C28B0938D280E943B
:101CA000490484CFBF92CF92DF92EF92FF920F93BD
:101CB0001F93CF93DF93CDB7DEB7C454D109CDBF07
:101CC000DEBF81E00E94030481E00E9426019C01A6
:101CD00050E040E013E8E12EF12C00E010E061E07C
:101CE00070E080E090E00E94990590ECB92E229679
:101CF000BFAE229789E223968FAF239724E4C22EAA
:101D000029E2D22EF6018081898381818A8328E8A5
:101D100030E040E050E0BE016F5F7F4FCE018F5B4F
:101D20009F4F0E94B10D80E00E94030481E00E9459
:101D300026019C0150E040E01BE8E12EF12C00E080
:101D400010E060E070E0CB010E9499052496BFAEE0
:101D5000249788E225968FAF2597F60180818983A5
:101D600081818A832FE830E040E050E0BE016F5F60
:101D70007F4FCE018D5B9F4F0E94B10DCC5BDF4F3B
:101D8000CDBFDEBFDF91CF911F910F91FF90EF90FC
:101D9000DF90CF90BF9008950F931F93CF93DF9361
:101DA00000D0CDB7DEB789839A83E2E7F8E2628399
:101DB0007383052E000C660B770B40875187628773
:101DC000738784859585A685B7850196A11DB11D6C
:101DD00084879587A687B787148215821682178213
:101DE00082E998E20E946C13892B09F0E1C070E04F
:101DF00060E080E00E94830070E060E082E00E948A
:101E0000830070E060E084E00E94830062E070E0A4
:101E100086E00E94830062E070E087E00E94830019
:101E200062E070E088E00E94830062E070E089E098
:101E30000E94830062E070E08AE00E94830062E01A
:101E400070E08BE00E94830070E060E08DE00E9413
:101E5000830070E060E084E10E94830070E060E055
:101E600082E10E94830070E060E081E10E948300D3
:101E700061E070E081E00E94830061E070E083E057
:101E80000E94830061E070E085E00E94830061E0D1
:101E900070E08CE00E94830061E070E085E10E94C8
:101EA000830061E070E083E10E94830061E070E004
:101EB00080E10E94830070E060E08EE00E94830079
:101EC00070E060E08FE00E94830080E00E940304E5
:101ED00080E00E94F50380E00E94E7036AE270E080
:101EE00086E090E00E9495036DE270E087E090E06C
:101EF0000E9495036BE270E088E090E00E949503F9
:101F00006EE270E089E090E00E9495036CE270E080
:101F10008AE090E00E9495036FE270E08BE090E031
:101F20000E94950380E00E94870380E00E9479036D
:101F300080E00E946B0380E00E945D038EE00E94BF
:101F40004B0115E38233910530F08F5D934016E32A
:101F5000879708F014E310931928809118288117A7
:101F600029F0812F0E945703109318288FE00E94B8
:101F70004B0197FD07968C0183E0159507958A958F
:101F8000E1F700935F2880915E28801771F0602F41
:101F900080E00E947B00602F81E00E947B00602F28
:101FA00082E00E947B0000935E28E981FA81099516
:101FB00082E998E20E946C13E2E7F8E2848D958D45
:101FC000A68DB78D892B8A2B8B2B11F1848995894E
:101FD000A689B7890196A11DB11D848B958BA68B0F
:101FE000B78BE2E7F8E2108E118E128E138E148EEC
:101FF000158E168E178E8AE090E00E944D040E9486
:1020000049040F900F90DF91CF911F910F91089588
:10201000808D918DA28DB38D892B8A2B8B2B69F4AA
:102020004085518562857385808191810E942C0550
:1020300086E598E60E948104D4CF80899189A2899F
:10204000B3890196A11DB11D808B918BA28BB38B9F
:10205000C8CF1F920F920FB60F9211242F933F9368
:102060004F935F936F937F938F939F93AF93BF93A0
:10207000409166285091672860916828709169287E
:10208000809164289091652820916228309163287E
:10209000420F531F611D711D2091602830916128EE
:1020A000820F931F883E23E0920730F0885E9340B2
:1020B0004F5F5F4F6F4F7F4F8093642890936528E9
:1020C0004093662850936728609368287093692826
:1020D00080916E2890916F28A0917028B0917128FE
:1020E0000196A11DB11D80936E2890936F28A09337
:1020F0007028B093712881E08093B60ABF91AF91A8
:102100009F918F917F916F915F914F913F912F910F
:102110000F900FBE0F901F9018951F920F920FB641
:102120000F9211242F933F934F935F936F937F935D
:102130008F939F93AF93BF93EF93FF9389EA98E2B6
:102140000E949D02FF91EF91BF91AF919F918F915E
:102150007F916F915F914F913F912F910F900FBEA3
:102160000F901F9018951F920F920FB60F92112487
:102170002F933F934F935F936F937F938F939F938F
:10218000AF93BF93EF93FF93E091B528F091B628FA
:10219000818181FD2FC060818091BB288F5F8F730B
:1021A0009091BC28891741F0E091BB28F0E0E755F9
:1021B000F74D618F8093BB288091422990914329EC
:1021C000009739F0DC01ED91FC910190F081E02D58
:1021D0000995FF91EF91BF91AF919F918F917F9161
:1021E0006F915F914F913F912F910F900FBE0F9084
:1021F0001F9018958081EDCF1092AB281092AC28DB
:1022000088EE93E0A0E0B0E08093AD289093AE28F4
:10221000A093AF28B093B02881E499E68093A928D1
:102220009093AA2880E698E08093B5289093B628EA
:1022300088E18093B72889E18093B82880E480936F
:10224000B9281092BB281092BC281092BD28109279
:10225000BE2886E28093BF281092C0281092C12821
:102260001092422910924329E4E4F9E2119289E2A2
:10227000E438F807D9F7089588ED90E084BF90938B
:10228000610080E094E2A4EFB0E080931A2890937C
:102290001B28A0931C28B0931D28809102068660FD
:1022A00080930206809100068160809300068091F1
:1022B00002068F7C809302068091A0008F78809325
:1022C000A000809102068061809302061092E205D0
:1022D00081E08093E40583E08093010A8FEF90E032
:1022E0008093260A9093270A80E890E08093380A2A
:1022F0009093390A80933A0A90933B0A80933C0A60
:1023000090933D0A8BE08093000A8091E5058160FF
:102310008093E5058091E50582608093E505E0E81E
:10232000FAE037E02FEF90E885E031832487958746
:1023300080837096E03C4AE0F407B9F780E094E0CF
:1023400080936C2890936D2880916C2890916D28D3
:102350002FEF30E0B9010E94C61360936A28709392
:102360006B2880916C2890916D28E8EEF3E0BF0116
:102370000E94C613609362287093632880916C2832
:1023800090916D28BF010E94C6138093602890939E
:1023900061282093BC0A3093BD0A8091B50A816000
:1023A0008093B50A84E08093B00A8091B00A81607E
:1023B0008093B00A78940E946D016B017C0120E843
:1023C000C20E24E8D21E2EE1E21EF11C40E8C41623
:1023D00044E8D4064EE1E406F10438F40E946D01AD
:1023E000C616D706E806F906C8F30E946D016C15FB
:1023F0007D058E059F05C8F387E599E680937228D1
:1024000090937328109274281092752810927A284D
:1024100010927B2810927C2810927D2810927E28A2
:1024200010927F2810928028109281281092822882
:102430001092832810928428109285281092862862
:1024400010928728109288281092892810928A2842
:1024500010928B2810928C2810928D2810928E2822
:1024600010928F281092902810929128109276281E
:1024700010927728109278281092792840E052EC38
:1024800061E070E089EA98E20E9490054BE151E03A
:1024900061E779E680E096E00E94CC0E4CE151E0E5
:1024A00065E979E689E296E00E94CC0E4DE151E0C3
:1024B0006DEB79E682E596E00E94CC0E4EE151E0AC
:1024C00065EE79E68BE796E00E94CC0E40E251E0A3
:1024D00063E17AE687E898E00E94CC0E41E251E0A1
:1024E0006FE37AE680EB98E00E94CC0E42E251E086
:1024F0006BE67AE689ED98E00E94CC0E43E251E06B
:1025000066E97AE682E099E00E94CC0E45E251E06D
:1025100064EC7AE680E59DE00E94CC0E46E251E054
:1025200065EE7AE683E89DE00E94CC0E48E251E039
:1025300069E07BE682E59EE00E94CC0E49E251E034
:102540006CE17BE68BE299E00E94CC0E4BE251E01D
:1025500065E37BE68DE799E00E94CC0E4CE251E00A
:102560006CE47BE68DEA99E00E94CC0E4EE251E0ED
:1025700069E67BE68FEF99E00E94CC0E4FE251E0D6
:1025800060E87BE68FE29AE00E94CC0E41E351E0E6
:102590006DE97BE683EC93E00E94CC0E43E351E0CF
:1025A0006BEB7BE681E89AE00E94CC0E44E351E0BD
:1025B0006FEC7BE681EB9AE00E94CC0E46E351E0A3
:1025C00069EE7BE683E09BE00E94CC0E47E351E09E
:1025D00064E07CE683E39BE00E94CC0E49E351E09B
:1025E00065E27CE684E89BE00E94CC0E4AE351E081
:1025F0006FE37CE684EB9BE00E94CC0E4CE351E061
:102600006FE57CE689E09CE00E94CC0E4DE351E052
:102610006CE77CE689E39CE00E94CC0E8AE090E0C7
:102620000E944D0480E898E60E9481048AE090E0D0
:102630000E944D0460917E2870917F2880918028AF
:10264000909181280E94100588E798E60E948104F5
:1026500060918228709183288091842890918528A8
:102660000E9410058DE698E60E94810460918628FC
:102670007091872880918828909189280E94100560
:1026800083E698E60E9481048AE090E00E944D046F
:102690008091822890918328A0918428B0918528E8
:1026A000892B8A2B8B2BA9F480E698E60E94810463
:1026B0008AE090E00E944D040E94490489EA98E271
:1026C0000E940602C0E0D0E02097F1F30E940000D3
:1026D000FBCF8BE598E6EACFDC012D923D924D923F
:1026E0005D926D927D928D929D92AD92BD92CD92B2
:1026F000DD92ED92FD920D931D93CD93DD93FF91AD
:10270000EF918DB78D938EB78D938FB78D93ED939A
:10271000FD93882799270994DC01CB01813091052D
:10272000811D2D903D904D905D906D907D908D9090
:102730009D90AD90BD90CD90DD90ED90FD900D9170
:102740001D91CD91DD91ED91FD910D900FBEEDBFED
:10275000FEBFED91FD9109940E94B713A59F900DC6
:10276000B49F900DA49F800D911D11240895A29FE8
:10277000B001B39FC001A39F700D811D1124911D55
:10278000B29F700D811D1124911D0895AA1BBB1BC2
:1027900051E107C0AA1FBB1FA617B70710F0A61B61
:1027A000B70B881F991F5A95A9F780959095BC0182
:1027B000CD010895A1E21A2EAA1BBB1BFD010DC07D
:1027C000AA1FBB1FEE1FFF1FA217B307E407F507E1
:1027D00020F0A21BB30BE40BF50B661F771F881FBD
:1027E000991F1A9469F760957095809590959B0153
:1027F000AC01BD01CF010895052E97FB1EF4009496
:102800000E94131457FD07D00E94DA1307FC03D06F
:102810004EF40C94131450954095309521953F4FEC
:102820004F4F5F4F089590958095709561957F4FBC
:102830008F4F9F4F0895B7FF0C94AC130E94AC13B9
:10284000821B930B0895EE0FFF1F0590F491E02D6E
:062850000994F894FFCF8B
:1028560050415353004641494C004F4B00204967B5
:102866006E6F7265642000204661696C75726573CF
:10287600200020546573747320002D2D2D2D2D2DD1
:102886002D2D2D2D2D2D2D2D2D2D2D2D2D2D2D2D72
:102896002D00030201000C0D0405000000030001D9
:1028A600020000010100000000000000000000001E
:1028B60000000000050400050602040103000100F3
:1028C60001020302010002030405020305040202D9
:1028D60000050201050004010104040403030303C7
:1028E6000505030300000101201001204004100229
:1028F6000801020102040804020104081020040869
:10290600201020456C656D656E7420002056616C44
:10291600756573204E6F742057697468696E20441C
:10292600656C746120002057617320002045787023
:102936006563746564200000000000E2029C01C922
:10294600013303FA01D801EC0190051F0206025576
:1029560003746573742F746573745F62335F636F9A
:102966006E74726F6C732E63707000746573745F2F
:102976006F76657264726976655F7377697463688A
:102986005F696E697469616C5F7374617465007404
:102996006573745F7669627261746F5F6C6F776579
:1029A600725F7377697463685F696E697469616C75
:1029B6005F737461746500746573745F76696272BF
:1029C60061746F5F75707065725F73776974636841
:1029D6005F696E697469616C5F73746174650074B4
:1029E6006573745F7669627261746F5F63686F7234
:1029F60075735F726F746172795F6B6E6F625F6918
:102A06006E697469616C5F73746174650074657373
:102A1600745F70657263757373696F6E5F6F6E5FF7
:102A26006F66665F7377697463685F696E697469F8
:102A3600616C5F737461746500746573745F70654F
:102A46007263757373696F6E5F766F6C756D655FB4
:102A56007377697463685F696E697469616C5F73C3
:102A66007461746500746573745F70657263757301
:102A760073696F6E5F64656C61795F7377697463A0
:102A8600685F696E697469616C5F7374617465000F
:102A9600746573745F70657263757373696F6E5F67
:102AA6006861726D6F6E69635F7377697463685F7F
:102AB600696E697469616C5F7374617465007465CD
:102AC60073745F6C65736C69655F7377697463684B
:102AD6005F696E697469616C5F73746174650074B3
:102AE6006573745F65787072657373696F6E5F7016
:102AF6006564616C5F696E697469616C5F7374614A
:102B0600746500746573745F7365745F6F76657260
:102B1600647269766500746573745F6F6E5F6F7655
:102B2600657264726976655F6368616E6765007475
:102B36006573745F7365745F7669627261746F5FE3
:102B4600757070657200746573745F6F6E5F766919
:102B5600627261746F5F75707065725F6368616ED3
:102B6600676500746573745F7365745F7669627216
:102B760061746F5F6C6F77657200746573745F6FF5
:102B86006E5F7669627261746F5F6C6F7765725F94
:102B96006368616E676500746573745F6F6E5F76F8
:102BA60069627261746F5F63686F7275735F636881
:102BB600616E676500746573745F7365745F7065D5
:102BC6007263757373696F6E00746573745F6F6E8D
:102BD6005F70657263757373696F6E5F6368616E4C
:102BE600676500746573745F7365745F706572639F
:102BF600757373696F6E5F766F6C756D650074655E
:102C060073745F6F6E5F70657263757373696F6EF1
:102C16005F766F6C756D655F6368616E676500747E
:102C26006573745F7365745F7065726375737369DA
:102C36006F6E5F64656C617900746573745F6F6E47
:102C46005F70657263757373696F6E5F64656C61DF
:102C5600795F6368616E676500746573745F736539
:102C6600745F70657263757373696F6E5F686172A6
:102C76006D6F6E696300746573745F6F6E5F706508
:102C86007263757373696F6E5F6861726D6F6E697B
:092C9600635F6368616E6765000D
:102C9F00FFFFFFFFFFFFFFFFFFFFFFFFFFFFFFFF35
:0E2CAF00FFFFFFFFFFFFFFFF7F7F0024F40009
:00000001FF
