:100000000C9451000C9479000C9479000C947900B4
:100010000C9479000C9479000C9479000C9479007C
:100020000C9479000C9479000C9479000C9479006C
:100030000C9479000C9479000C9479000C9479005C
:100040000C9479000C9479000C9479000C9479004C
:100050000C9479000C9479000C9479000C9479003C
:100060000C9479000C9479000C9479000C9479002C
:100070000C9479000C9479000C9479000C9479001C
:100080000C9479000C9479000C9479000C9479000C
:100090000C94C7050C9451060C942B060C94790013
:1000A000D90A11241FBECFEFCDBFDFE3DEBF29E2A7
:1000B000A0E4B8E201C01D92A334B207E1F718E250
:1000C000A0E0B8E2E7E0FCE102C005900D92A034A8
:1000D000B107D9F710E0C1E5D0E004C02197FE01D7
:1000E0000E94BC0BC035D107C9F70E949A060C9438
:1000F000B60D0C940000282F30E0F901E751F44AC6
:1001000040814F3F09F44EC08B3258F4F901E55657
:10011000F44AE081EE2329F0E13099F010F0E63066
:1001200010F1F901E153F44AE081A0E2EA9FF00105
:100130001124FC5F8081842311F1672BF1F4468345
:100140000895E091010AD901AB54B44A5C915C5F17
:1001500081E090E001C0880F5A95EAF780958E23E0
:100160008093010ADECF80E1E89FF0011124E05A7C
:10017000F54F81818F7E8183D4CF458308952B54A1
:10018000344AD9018C91309771F08F3F61F07096AD
:10019000E80FF11D9FB7F8948081672B39F4877FB2
:1001A00080839FBF0895F0E0E0E0F4CF8860F8CF4F
:1001B000CF93DF9390E0FC01E751F44A20812F3F79
:1001C00071F0FC01E153F44AA08130E2A39FD00119
:1001D0001124BC5F6130710529F411962C93DF91D5
:1001E000CF9108958B54944AEC01E881EF3F89F058
:1001F000CD014096E80FF92FF11D9FB7F8941296A4
:100200002C9380816230710539F4886080839FBFB0
:10021000E6CFF0E0E0E0F1CF877FF8CFE82FF0E025
:10022000ED56F44A8E30B8F480818F30B0F480936C
:10023000060681E08093080680910B0680FFFCCFC4
:100240002FB7F89490911006809111062FBF89273F
:100250009827892708953E97E7CF8FEF90E008957C
:10026000CF93DF938FB7F89420919C2830919D28ED
:1002700040919E2850919F28E091BA0A9091B60A29
:1002800090FF06C02F5F3F4F4F4F5F4FE091BA0A7C
:100290008FBFA0919A28B0919B28C0919828D091A7
:1002A00099280E94000BEC9F9001ED9F300D1124C6
:1002B000620F731F811D911DDF91CF9108958F9261
:1002C0009F92AF92BF92CF92DF92EF92FF924B013B
:1002D0005C010E9430016B017C01A8EEB3E0A50136
:1002E00094010E94000BC60ED71EE81EF91EC6160A
:1002F000D706E806F90618F40E943001F8CF0E94EC
:1003000030016C157D058E059F05C8F3FF90EF90B9
:10031000DF90CF90BF90AF909F908F900895AF9255
:10032000BF92CF92DF92EF92FF920F931F93CF93E2
:10033000DF936C017B018B01040F151FEB015E0144
:10034000AE18BF08C017D10759F06991D601ED91D9
:10035000FC910190F081E02DC6010995892B79F778
:10036000C501DF91CF911F910F91FF90EF90DF902A
:10037000CF90BF90AF900895CF93DF9300D0CDB7CB
:10038000DEB790EC99838A8342E050E0BE016F5F54
:100390007F4F84EA98E20E948F010F900F90DF91C7
:1003A000CF910895FC0154894589252F30E0842F91
:1003B00090E0821B930B541710F0CF96089501978D
:1003C0000895FC0192898389981761F0A389AE0F83
:1003D000BF2FB11D59968C9193899F5F9F73938B0B
:1003E00090E008958FEF9FEF08952FB7F8948091D4
:1003F000A0289091A128A091A228B091A3282FBF56
:100400008093AC289093AD28A093AE28B093AF28EA
:1004100084EA98E20E94E10197FF26C02FB7F89482
:100420008091A0289091A128A091A228B091A32802
:100430002FBF4091AC285091AD286091AE287091AB
:10044000AF28841B950BA60BB70B4091A8285091A1
:10045000A9286091AA287091AB2884179507A60750
:10046000B707B0F28FEF9FEF0895FC01928983895F
:10047000981731F08389E80FF11D818D90E0089580
:100480008FEF9FEF0895FC0192892389892F90E0D7
:10049000805C9F4F821B91098F7399270895CF939A
:1004A000DF93EC01E881F9810680F781E02D099561
:1004B000EC85FD8586818F738683EC85FD8585813E
:1004C0008F7585838B898A8B198ADF91CF910895E7
:1004D000CF92DF92EF92FF920F931F93CF93DF9310
:1004E000EC016A017B01022F8989882339F0E881B8
:1004F000F9810288F389E02DCE01099598898091D0
:10050000E205892B8093E2051FB7F89460E070E262
:1005100081EA97E0A70196010E94730B69017A01B5
:100520008FEFC81AD80AE80AF80AF694E794D79425
:10053000C794EC85FD8586818D7F8683EC85FD855E
:1005400086818683198AA09123110A2E000CBB0B89
:10055000A70196010E94B40B20E034E040E050E097
:100560000E94950BEC85FD85C20ED31EE41EF51E80
:10057000C086D186EC85FD850783EC85FD85868167
:10058000806C8683EC85FD858581806885838E857A
:100590008B3220F462E070E00E94D8008F858B32AD
:1005A00020F461E070E00E947B008F858B3220F4A4
:1005B00061E070E00E94D8001FBFDF91CF911F91D2
:1005C0000F91FF90EF90DF90CF900895CF93DF933E
:1005D000FC0194898589C485D585981306C08D81D1
:1005E0008F7D8D83DF91CF910895A589AE0FBF2FA9
:1005F000B11DA75ABF4F2C91858990E001968F734A
:100600009927858B80E48C83A485B58512962C93DD
:10061000948985899813E6CFA485B58515968C9124
:1006200015978F7D15968C9387898823D9F2808DB5
:1006300080931301178AD6CFDC011C96ED91FC91B3
:100640000FB607FE03C0258125FD04C0248125FDCA
:100650000C94E6020895EF92FF920F931F93CF93AD
:10066000DF93EC0181E0898B9C898D8998131CC0F4
:10067000AC85BD8514968C91149785FF15C0129694
:100680006C93AC85BD8580E414968C93EC85FD85D8
:1006900085818F7D858381E090E0DF91CF911F91EF
:1006A0000F91FF90EF9008958091110180FF08C095
:1006B00080911301888F8E898093130181E08F8B45
:1006C000F62E0C8910E00F5F1F4F0F731127E02EDD
:1006D0008D898E1104C0CE010E941C03F9CFEC89D4
:1006E000EC0FFD2FF11DE75AFF4FF0820C8BEC85CC
:1006F000FD8585818062CECFCF93DF93FC01218978
:100700002223C9F0EC018091110180FF08C0809183
:100710001301808F86898093130181E0878BEC859C
:10072000FD85858185FD03C0848186FD04C0CE01E1
:100730000E941C03F4CFDF91CF91089581E00895CA
:10074000EF92FF920F931F93CF93DF9300D01F92EE
:10075000CDB7DEB78C018A59974D7C010930110560
:1007600020F480910528811157C098012950310942
:100770002930310520F480918D2881114DC0C801A8
:10078000429782309105A0F0A801445151094930A7
:10079000510520F44091042841110AC0A8014D518F
:1007A00051094930510540F540918C28442321F1ED
:1007B0002930310588F122E0029708F021E002316A
:1007C000110560F5C80169E070E00E945F0B8A5B6B
:1007D0009F4FD701EC91F0E0E059F44A9081206BF3
:1007E00029838A839B8343E050E0BE016F5F7F4F84
:1007F00084EA98E20E948F01F801E05CF74DD7018E
:100800008C9180832396CDBFDEBFDF91CF911F9166
:100810000F91FF90EF90089520E0D4CF86E490E010
:1008200002311105B1F288E490E00331110589F23B
:10083000C8014497C8CF8034910528F46A59774D90
:10084000FB01108208959C012054310920383105A4
:1008500030F46A59774D81E0FB01808308959C0153
:10086000205C31092038310520F46A59774D82E047
:10087000F3CF9C01205431402038310520F46A59CF
:10088000774D83E0E9CF9C01205C31402038310571
:1008900020F46A59774D84E0DFCF9C012054324028
:1008A0002038310520F46A59774D85E0D5CF9C0179
:1008B000205C32402038310520F46A59774D86E0BB
:1008C000CBCF9C01205433402038310520F46A59A5
:1008D000774D87E0C1CF805C93408034910508F06C
:1008E000BDCF6A59774D88E0B7CFCF93DF93EC0146
:1008F000BC016170772782E00E947B006C2F6695B7
:10090000617070E083E00E947B00C2FB662760F9A3
:1009100070E084E0DF91CF910C947B00DC01ED91DD
:10092000FC910088F189E02D23E030E00994FC017E
:1009300024813581232B39F421E0FB018081882338
:1009400049F020E007C0808191810E94AD0D21E037
:10095000892BB9F7822F0895CF93DF93EC0168E1DB
:1009600078E20E949704882361F0D0E0C0E0CE01D5
:100970000E94A0032196C930D105C9F7DF91CF911C
:1009800008956BE178E2CE010E949704882351F02C
:10099000C9E0D0E0CE010E94A0032196C231D1056A
:1009A000C9F7ECCF66E378E2CE010E949704882372
:1009B00051F082E190E00E94A00383E190E0DF919A
:1009C000CF910C94A00360E378E2CE010E949704DB
:1009D000882351F0C4E1D0E0CE010E94A00321960B
:1009E000CD31D105C9F7CACF63E378E2CE010E94C9
:1009F0009704882319F2CDE1D0E0CE010E94A00334
:100A00002196C632D105C9F7B9CFFC018081918109
:100A1000009711F00C945E0C08950F931F93CF93E1
:100A2000DF93EC0188819981009759F02A813B81FD
:100A30002617370730F081E0DF91CF911F910F919A
:100A400008958B016F5F7F4F0E94E70C009759F06C
:100A5000888399830A831B832C813D81232B59F73B
:100A6000FC011082E8CF80E0E7CFEF92FF920F9376
:100A70001F93CF93DF93EC017B018A01BA010E949F
:100A80000D0528813981811114C02115310519F016
:100A9000C9010E945E0C188219821C821D821A8272
:100AA0001B82CE01DF91CF911F910F91FF90EF90AC
:100AB00008950C831D83A801B701C9010E94A40DEC
:100AC000E881F9818C819D81E80FF91F1082E9CFBF
:100AD000FB0101900020E9F73197AF01461B570B4E
:100AE0000C943505EF92FF920F931F93CF93DF93F2
:100AF000EC01188219821A821B821C821D8264E01A
:100B00007CE50E9468050E94F5017C0197FD1DC0EF
:100B10008AE0E816D1F00C811D810F5F1F4FB801EC
:100B2000CE010E940D05882371F3E881F9818C8143
:100B30009D81E80FF91FE0820C831D8388819981D4
:100B4000080F191FF8011082DECFCE01DF91CF917F
:100B50001F910F91FF90EF900895FB01DC011D9212
:100B60001C92119712961D921C92139714961D9227
:100B70001C9215978617970749F06081718161155E
:100B8000710521F0448155810C94350508951F921B
:100B90000F920FB60F9211242F933F934F935F93B1
:100BA0006F937F938F939F93AF93BF934091A028B0
:100BB0005091A1286091A2287091A3288091962835
:100BC000909197282091942830919528420F531F97
:100BD000611D711D2091922830919328820F931FDF
:100BE000883E23E0920730F0885E93404F5F5F4F6E
:100BF0006F4F7F4F80939628909397284093A0281B
:100C00005093A1286093A2287093A32880919C28D8
:100C100090919D28A0919E28B0919F280196A11D9A
:100C2000B11D80939C2890939D28A0939E28B093FB
:100C30009F2881E08093B60ABF91AF919F918F91D9
:100C40007F916F915F914F913F912F910F900FBEC8
:100C50000F901F9018951F920F920FB60F921124AC
:100C60002F933F934F935F936F937F938F939F93B4
:100C7000AF93BF93EF93FF9384EA98E20E94E6025A
:100C8000FF91EF91BF91AF919F918F917F916F9164
:100C90005F914F913F912F910F900FBE0F901F903A
:100CA00018951F920F920FB60F9211242F933F9316
:100CB0004F935F936F937F938F939F93AF93BF9364
:100CC000EF93FF93E091B028F091B128818181FDED
:100CD0002FC060818091B6288F5F8F739091B72865
:100CE000891741F0E091B628F0E0EC55F74D618F9F
:100CF0008093B62880913D2990913E29009739F044
:100D0000DC01ED91FC910190F081E02D0995FF91BE
:100D1000EF91BF91AF919F918F917F916F915F9173
:100D20004F913F912F910F900FBE0F901F901895EC
:100D30008081EDCFCF93DF93CDB7DEB76297CDBF84
:100D4000DEBF88ED90E084BF9093610080E094E284
:100D5000A4EFB0E08093002890930128A09302288C
:100D6000B0930328809102068660809302068091EA
:100D70000006816080930006809102068F7C80933C
:100D800002068091A0008F788093A00080910206D7
:100D90008061809302061092E20581E08093E40571
:100DA00083E08093010A8FEF90E08093260A90936E
:100DB000270A80E890E08093380A9093390A80935C
:100DC0003A0A90933B0A80933C0A90933D0A8BE049
:100DD0008093000A8091E50581608093E50580910C
:100DE000E50582608093E505E0E8FAE037E02FEF63
:100DF00090E885E031832487958780837096E03C76
:100E00004AE0F407B9F780E094E080939A28909341
:100E10009B2880919A2890919B282FEF30E0B90170
:100E20000E944B0B609398287093992880919A2880
:100E300090919B28E8EEF3E0BF010E944B0B60937A
:100E400094287093952880919A2890919B28BF01AF
:100E50000E944B0B80939228909393282093BC0A76
:100E60003093BD0A8091B50A81608093B50A84E011
:100E70008093B00A8091B00A81608093B00A789420
:100E800061E070E082E00E94D80061E070E083E001
:100E90000E94D80061E070E084E00E94D80061E028
:100EA00070E085E00E94D80061E070E086E00E947A
:100EB000D80070E060E08EE00E94D80070E060E052
:100EC0008FE00E94D80070E060E080E10E94D800CE
:100ED00070E060E081E10E94D80070E060E082E1B3
:100EE0000E94D80070E060E083E10E94D80070E0CA
:100EF00060E084E10E94D80070E060E085E10E943B
:100F0000D80062E070E087E00E94D80062E070E004
:100F100088E00E94D80062E070E089E00E94D8007A
:100F200062E070E08AE00E94D80062E070E08BE04E
:100F30000E94D80062E070E08CE00E94D80061E07E
:100F400070E08DE00E94D80070E060E08DE00E94CB
:100F50007B0070E060E082E00E947B0070E060E077
:100F600083E00E947B0070E060E084E00E947B00F0
:100F700061E070E085E00E947B0061E070E086E067
:100F80000E947B00809102068F7C809302068091F4
:100F9000A0008F788093A0008091020680628093E9
:100FA000020640E052EC61E070E084EA98E20E94C0
:100FB0008E048EE00E940E01A6E6B8E2E0E4F8E2BC
:100FC0008FEF81938D9398E2E636F907D1F784EAA3
:100FD00098E20E944302892B39F464E670E080E0D5
:100FE00090E00E945F01F3CFCE0107960E94720548
:100FF00063E07CE5CE0107960E94970402E010E0D2
:10100000811166C1CE0107960E940505A0E0EA2E77
:10101000A0E0FA2E8FB7F8944091A0285091A12813
:101020006091A2287091A3288FBF80918E28909103
:101030008F28A0919028B0919128481B590B6A0BDA
:101040007B0B4A3051056105710508F438C10A96D9
:10105000A11DB11D80938E2890938F28A093902876
:10106000B0939128E0E4AE2EE8E2BE2EF6E6CF2E55
:10107000F8E2DF2E10E000E0C8010E9475046AE08B
:1010800070E080E090E00E945F018EE00E940E011F
:10109000B8010E941B04F60191916F01F501819145
:1010A0005F01981719F0C8010E94A0030F5F1F4F3E
:1010B0000830110509F76AE070E080E090E00E94D6
:1010C0005F018FE00E940E0168E070E00E941B0447
:1010D00090916E2880914828981721F088E090E040
:1010E0000E94A0036FE6C62E68E2D62E79E4A72EF2
:1010F00078E2B72E09E010E0C80109970E94750454
:101100006AE070E080E090E00E945F0180E10E9470
:101110000E01B8010E941B04F60191916F01F501C7
:1011200081915F01981719F0C8010E94A0030F5F19
:101130001F4F0131110501F747E7A42E48E2B42EF5
:1011400051E5C52E58E2D52EC80141970E9475047D
:101150006AE070E080E090E00E945F0181E10E941F
:101160000E01B8010E941B04F50191915F01F60187
:1011700081916F01981719F0C8010E94A0030F5FB9
:101180001F4F0431110501F72AE7C22E28E2D22EA3
:1011900034E5A32E38E2B32EC80144970E947504AB
:1011A0006AE070E080E090E00E945F0182E10E94CE
:1011B0000E01B8010E941B04F60191916F01F50127
:1011C00081915F01981719F0C8010E94A0030F5F79
:1011D0001F4F0C31110501F76AE070E080E090E0EC
:1011E0000E945F0183E10E940E016CE170E00E94A9
:1011F0001B049091822880915C28981721F08CE143
:1012000090E00E94A00383E8A82E88E2B82E9DE516
:10121000C92E98E2D92E0DE110E0C8014D970E9429
:1012200075046AE070E080E090E00E945F0184E174
:101230000E940E01B8010E941B04F50191915F010B
:10124000F60181916F01981719F0C8010E94A0035F
:101250000F5F1F4F0532110501F76AE070E080E073
:1012600090E00E945F0185E10E940E0165E270E05E
:101270000E941B0490918B2880916528981721F07B
:1012800085E290E00E94A00384EA98E20E94430273
:1012900018161906A4F4CE010D960E94720565E099
:1012A0007CE5CE010D960E949704882309F470C056
:1012B000F0E0E0E00995CE010D960E940505E114ED
:1012C000F10409F4A7CE0E940000A4CE01E010E0D2
:1012D00061E070E085E00E947B0061E070E086E004
:1012E0000E947B0068EC70E080E090E00E945F016B
:1012F00070E060E085E00E947B0070E060E086E0E6
:101300000E947B0068EC70E080E090E00E945F014A
:1013100001301105D9F619821A821B821C821D82A6
:101320001E8268E178E2CE0101960E946805CE0136
:1013300001960E94AC04CE0101960E940505198217
:101340001A821B821C821D821E8260E378E2CE011B
:1013500001960E946805CE0101960E94AC04CE0160
:1013600001960E94050519821A821B821C821D8229
:101370001E8266E378E2CE0101960E946805CE01E6
:1013800001960E94AC04CE0101960E9405053ACE5A
:10139000BE01635F7F4FCE0107960E94AD0568E1F5
:1013A00078E2CE0107960E9497048823F1F061E06D
:1013B00070E085E00E947B0081E080930528109218
:1013C0008D28BE01695F7F4FCE0101960E94AD0559
:1013D000CE0101960E94AC04CE0101960E94050543
:1013E000CE0107960E94050566CF6BE178E2CE013B
:1013F00007960E949704882359F070E060E085E02A
:101400000E947B001092052881E080938D28D9CF1F
:1014100060E378E2CE0107960E949704882359F092
:1014200061E070E086E00E947B0081E08093042808
:1014300010928C28C6CF63E378E2CE0107960E9413
:101440009704882359F070E060E086E00E947B00FA
:101450001092042881E080938C28B3CF66E078E274
:10146000CE0107960E949704882341F01092052828
:1014700010928D2887E00E94BC01B2CF69E078E22B
:10148000CE0107960E949704882331F01092052818
:1014900010928D2888E0EFCF6CE078E2CE010796BD
:1014A0000E949704882331F01092052810928D280D
:1014B00089E0E1CF6FE078E2CE0107960E949704C1
:1014C000882331F01092052810928D288AE0D3CF1E
:1014D00062E178E2CE0107960E949704882331F0FA
:1014E0001092052810928D288BE0C5CF65E178E237
:1014F000CE0107960E949704882331F010920528A8
:1015000010928D288CE0B7CF6EE178E2CE0107967D
:101510000E949704882331F01092042810928C289E
:1015200081E0A9CF61E278E2CE0107960E9497049C
:10153000882331F01092042810928C2882E09BCFEF
:1015400064E278E2CE0107960E949704882331F086
:101550001092042810928C2883E08DCF67E278E205
:10156000CE0107960E949704882331F01092042838
:1015700010928C2884E07FCF6AE278E2CE01079651
:101580000E949704882331F01092042810928C282E
:1015900085E071CF6DE278E2CE0107960E94970454
:1015A000882309F41DCF1092042810928C2886E01D
:1015B00062CFE4EAF8E21282138288EE93E0A0E0C0
:1015C000B0E084839583A683B7838DE79BE5808312
:1015D000918380E698E08487958788E1868789E112
:1015E000878780E4808B128A138A148A158A86E2A0
:1015F000868B178A108E10923D2910923E290895ED
:101600000E943C0BA59F900DB49F900DA49F800D50
:10161000911D112408952F923F924F925F926F92E5
:101620007F928F929F92AF92BF92CF92DF92EF9272
:10163000FF920F931F93CF93DF93CDB7DEB7CA1BF3
:10164000DB0BCDBFDEBF09942A88398848885F84C8
:101650006E847D848C849B84AA84B984C884DF8052
:10166000EE80FD800C811B81AA81B981CE0FD11D36
:10167000CDBFDEBFED010895A29FB001B39FC001B1
:10168000A39F700D811D1124911DB29F700D811DAE
:101690001124911D0895AA1BBB1B51E107C0AA1F6D
:1016A000BB1FA617B70710F0A61BB70B881F991F03
:1016B0005A95A9F780959095BC01CD01089597FBA7
:1016C000072E16F4009407D077FD09D00E944B0B2B
:1016D00007FC05D03EF4909581959F4F0895709535
:1016E00061957F4F0895A1E21A2EAA1BBB1BFD0135
:1016F0000DC0AA1FBB1FEE1FFF1FA217B307E407F1
:10170000F50720F0A21BB30BE40BF50B661F771F48
:10171000881F991F1A9469F7609570958095909528
:101720009B01AC01BD01CF010895052E97FB1EF46E
:1017300000940E94AC0B57FD07D00E94730B07FC6E
:1017400003D04EF40C94AC0B5095409530952195F8
:101750003F4F4F4F5F4F08959095809570956195DD
:101760007F4F8F4F9F4F0895B7FF0C94000B0E943F
:10177000000B821B930B0895EE0FFF1F0590F49151
:10178000E02D09940F931F93CF93DF93823091053F
:1017900010F482E090E0E0914129F091422930E09C
:1017A00020E0B0E0A0E0309799F42115310509F46C
:1017B0004AC0281B390B24303105D8F58A819B811A
:1017C0006115710589F1FB0182839383FE0111C0CC
:1017D000408151810281138148175907E0F0481771
:1017E000590799F4109761F012960C93129713967B
:1017F0001C933296CF01DF91CF911F910F910895E5
:101800000093412910934229F4CF2115310551F05D
:101810004217530738F0A901DB019A01BD01DF012E
:10182000F801C1CFEF01F9CF80934129909342296C
:10183000CDCFFE01E20FF31F819391932250310926
:1018400028833983D7CF20913F2930914029232BFA
:1018500041F420913B2830913C2820933F2930933C
:1018600040292091392830913A282115310541F439
:101870002DB73EB740913D2850913E28241B350B93
:10188000E0913F29F0914029E217F307A0F42E1BC5
:101890003F0B2817390778F0AC014E5F5F4F2417D4
:1018A000350748F04E0F5F1F40933F295093402962
:1018B000819391939FCFF0E0E0E09CCFCF93DF93B3
:1018C0000097E9F0FC01329712821382A09141291E
:1018D000B0914229ED0130E020E01097A1F4208181
:1018E0003181820F931F20913F2930914029281781
:1018F000390709F061C0E0933F29F0934029DF9157
:10190000CF910895EA01CE17DF07E8F54A815B81A0
:101910009E0141155105B1F7E901EA83FB83499125
:101920005991C40FD51FEC17FD0761F48081918197
:101930000296840F951FE9018883998382819381A0
:101940008A839B83F0E0E0E012968D919C9113973F
:101950000097B9F52D913C911197CD010296820F18
:10196000931F20913F29309140292817390739F6D4
:10197000309751F51092412910924229A0933F29A6
:10198000B0934029BCCFC283D38340815181840F5F
:10199000951FC817D90761F44E5F5F4F8881998101
:1019A000480F591F408351838A819B81828393838F
:1019B0002115310509F0B0CFE0934129F093422978
:1019C0009ECFFD01DC01C0CF12821382D7CFB0E0E1
:1019D000A0E0EDEEFCE00C940D0B8C01009751F4AF
:1019E000CB010E94C20B8C01C801CDB7DEB7E0E18C
:1019F0000C94260BFC01E60FF71F9C0122503109C5
:101A0000E217F30708F49DC0D901CD91DC9111973D
:101A1000C617D70798F0C530D10530F3CE0104972B
:101A20008617970708F3C61BD70B2297C193D1934C
:101A30006D937C93CF010E945E0CD6CF5B01AC1AF4
:101A4000BD0A4C018C0E9D1EA0914129B0914229E6
:101A5000512C412CF12CE12C109731F580913F292C
:101A6000909140298815990509F05CC046165706E3
:101A700008F058C08091392890913A28009741F495
:101A80008DB79EB740913D2850913E28841B950B01
:101A9000E817F90708F055C0E0933F29F093402973
:101AA000F90160837183A0CF8D919C91119712965B
:101AB0006C90129713967C901397A815B90559F559
:101AC0006C0142E0C40ED11CCA14DB0420F1AC014D
:101AD0004A195B09DA011296159780F062827382C7
:101AE00040835183D9016D937C93E114F10471F02B
:101AF000D7011296ED93FC93139776CF22968C0F15
:101B00009D1FF90180839183F301EFCFE093412979
:101B1000F093422969CF4816590608F42C017D013B
:101B2000D3019ACFCB010E94C20B7C01009749F0F0
:101B3000AE01B8010E94A40DC8010E945E0C87018D
:101B400053CF10E000E050CFFB01DC0102C0019058
:101B50000D9241505040D8F70895FB01DC018D9162
:101B6000019080190110D9F3990B0895F894FFCFD3
:101B70007F6E5C4F3F2F1F0F00000000002B038F74
:101B800001D2017C034302E10135028E0468024F59
:101B9000029E03030201000C0D0405000000030077
:101BA0000102000001010000000000000000000030
:101BB0000000000000050400050602040103000106
:101BC00000010203020100020304050203050402EE
:101BD00002000502010500040101040404030303DB
:101BE000030505030300000101201001204004103B
:101BF0000208010201020408040201040810200482
:071C0000082010440052000F
:101C07000024F400010155300055310055320055CC
:101C170033005534005535005541005542004C30CE
:101C2700004C31004C32004C33004C34004C350032
:101C37004C41004C4200420017000043298000003D
:00000001FF
